:200000006720474345206b36363680fef8f850309053505544535445522753205245564599
:200020004e47458000bd0230bd025cbd01babd008cbdf192bdf2a1867fbd02ca8600bd0238
:20004000b4bd0098bd013ebd00f0bd0105b6c88a81342603bd00a3bd0112bd011ebd00dd9f
:20006000bdf36bbd00c4bec89010bec889860ac614bdf8ff25022005bd01698d0fbd01378d
:20008000b6c888102600037e018a20a5867fb7c890bdf517b7c89139cec88086f6c69cbd7c
:2000a000f37a39b6c81227178601191f894f1f03ae9fc880bdf85e8601b7c88cb7c88b3996
:2000c0007cc88739b6c890f6c891bdf3128e0458bdf3ce39b6c89026037ac88839b6c89113
:2000e000818126029d8cb6c890810026028d9d39867fbd02cacc0000bdf312bdf2a18e0396
:20010000d6bdf410398653bd02ca8e03e9bdf41039398653bd02ca8e0423bdf41039867fea
:20012000bd02cabdf36bb6c889f6c88abdf3128e02cebdf41039397ac8917ac89039bdf1ed
:20014000f8b6c81b27222b11b6c88a813527197cc88a7cc88a2011200fb6c88a8181270856
:200160007ac88a7ac88a2000397ac888b6c88eb7c88a86ffb7c898bdf56dce04ae8600c628
:2001800024bdf37a7ac89826ee39ae9fc880fecbebbdf8d8bdf192bdf2a1ce04b48601c6b1
:2001a000cebdf37abdf1bab6c812bac813bac814bac815260220ddbdf06cbdf1bab6c81356
:2001c000270db6c8142708b6c81527037e0298bdf192bdf2a5ce04698630c690bdf37ab69a
:2001e000c893260d7ac892b6c892b1c897270f20197cc892b6c892b1c8962709200c860136
:20020000b7c89320058600b7c893b6c892bdf2abce047c86cec692bdf37abdf1bab6c81289
:200220001026fe0d20a939c601bffef8bdf289398601b7c81fb7c8928640b7c896860ab736
:20024000c8978600b7c893b7c820b7c821b7c822bdf1f88600bdf1babdf192398603b7c8b2
:20026000888630b7c880b7c881b7c882b7c883b7c884b7c8858680b7c8868600b7c88bb7e5
:20028000c88c8601b7c8878681b7c88eb6c88eb7c88a8632b7c88939bdf2a1bdf192ce04f9
:2002a0008e8600c6c4bdf37ace049986ecc6b4bdf37a20e4bdf2a186f6c641fdc8948669d6
:2002c000f6c888bec894bdf39339b7d00439010606ff000cfffa06ffe7f9ff00f7ff19f981
:2002e00000ff08fffc04ff0404fffdfdfffe00ff0200ffffffff01fffffe0000ec03fffe15
:20030000ffffff02ff0508ff0201fffffdfffefc000af7ff0007fffdffff03ffff00faffe1
:20032000fd01ff030101010606ff000cfffa06ffe7f9ff00f7ff19f900ff08fffc04ff04b5
:2003400004fffdfdfffe00ff0200ffffffff01fffffe0000ec03fffeffffff02ff0508ffb3
:200360000201fffffdfffefc000af7ff0007fffdffff03ffff00fafffd01ff030101010682
:2003800006ff000cfffa06ffe7f9ff00f7ff19f900ff08fffc04ff0404fffdfdfffe00ff65
:2003a0000200ffffffff01fffffe0000ec03fffeffffff02ff0508ff0201fffffdfffefc55
:2003c000000af7ff0007fffdffff03ffff00fafffd01ff030101000084ff007cff007cffa7
:2003e0006400ff00f1ff9d0001001afcff00deff0704ff001afff904ff17f3fff5f9ff0bfa
:20040000f2ff01f3ff0c0cff12fcfffb0fff0f0bffeb01fff70dfff5f100f9f3fff7fdff00
:20042000f8fc0100000affec00ff00f6ff0a0aff0a0000000affec00ff000aff0af60100c3
:20044000000afff1f1ff07f9ff000c000819fff10fff0707ff00f40107000400fc0400fc7f
:20046000000c0c000400fc04005350554453544552275320524556454e47458020505245b9
:200480005353203120544f20535441525480435245415445442042598057415252454e2052
:2004a000524f42494e4554548030303030804f572121218047414d45204f564552805052f4
:1c04c000455353203120544f20504c415920414741494e80fee8fbe60080008004
:00000001ff
